:020000040000FA
:04000000E9EF08F02C
:10100000005072657373203120666F7220426C75D8
:10101000652C203220666F7220477265656E2C2029
:101020003320666F7220526564202E2E2E0D0A002A
:1010300057656C636F6D6520746F20434F33323694
:09104000204C6162330D0A00002E
:10104A00E0EC08F0300E086E100E096E91EC08F014
:10105A00060E0B6E130E0A6EAE0EE82EFED70A2E81
:10106A00FCD70B2EFAD7010E086E100E096E91EC02
:10107A0008F0AEEC08F00C6E57EF08F08A808A92FE
:10108A008A943EEF08F08A828A948A903EEF08F0AA
:10109A008A848A908A923EEF08F08A948A908A9289
:1010AA003EEF08F00C500A6E0B6A0B50000AD8B4D7
:1010BA0061EF08F052EF08F00A50310AD8B443EF52
:1010CA0008F0030AD8B448EF08F0010AD8B44DEF83
:1010DA0008F052EF08F000EF00F0080EB86E900E1C
:1010EA00AB6E240EAC6ECF0EAF6E000EB06E000E5D
:1010FA00076E000E086EF8EC08F0000E076E000E80
:10110A00086EF3EC08F0000E076E000E086EFDEC98
:10111A0008F0000E0D6E12009EEF08F008C0F6FFF0
:10112A0009C0F7FFF86A0800F550D5EC08F0084A3C
:10113A00092A08C0F6FF09C0F7FFF86A0800F55047
:10114A000009D8A4ABEF08F0ADEF08F093EF08F070
:10115A0012009EAAB3EF08F0B5EF08F0AEEF08F060
:10116A00000E0D6EABA2BCEF08F0BEEF08F0C0EFA8
:10117A0008F0AB98AB88AE501200000E896E000ED4
:10118A008A6E000E8B6E9268F80E936EBF0E946E86
:10119A001F0E7E6E1F0E7F6E000E7C6EF18E120089
:1011AA00076E9EA8DBEF08F0DDEF08F0D6EF08F037
:1011BA0007C0ADFF1200C2EC08F0EEEC08F002EC3A
:1011CA0009F072EC08F012000D6A0C6A000125EFB2
:1011DA0008F0620ED36E000E9B6E120007C003F079
:1011EA0008C004F0120007C005F008C006F012009B
:1011FA0007C001F008C002F01200800EB46E12009F
:020000040020DA
:08000000FFFFFFFFFFFFFFFF00
:020000040030CA
:0E000000FF081F1EFF8985FF0FC00FE00F4095
:00000001FF
